{
  "abi": [
    {
      "inputs": [
        {
          "internalType": "contract IERC20",
          "name": "_scAddress",
          "type": "address"
        }
      ],
      "stateMutability": "payable",
      "type": "constructor"
    },
    {
      "anonymous": false,
      "inputs": [
        {
          "indexed": false,
          "internalType": "address",
          "name": "_initialAccount",
          "type": "address"
        },
        {
          "indexed": false,
          "internalType": "address",
          "name": "_finalAccount",
          "type": "address"
        }
      ],
      "name": "ChangesDelegateTospend",
      "type": "event"
    },
    {
      "anonymous": false,
      "inputs": [
        {
          "indexed": false,
          "internalType": "address",
          "name": "_from",
          "type": "address"
        },
        {
          "indexed": false,
          "internalType": "uint256",
          "name": "_amount",
          "type": "uint256"
        }
      ],
      "name": "DepositERC20",
      "type": "event"
    },
    {
      "anonymous": false,
      "inputs": [
        {
          "indexed": false,
          "internalType": "address",
          "name": "_from",
          "type": "address"
        },
        {
          "indexed": false,
          "internalType": "uint256",
          "name": "_amount",
          "type": "uint256"
        }
      ],
      "name": "TransferReceived",
      "type": "event"
    },
    {
      "anonymous": false,
      "inputs": [
        {
          "indexed": false,
          "internalType": "address",
          "name": "_from",
          "type": "address"
        },
        {
          "indexed": false,
          "internalType": "address",
          "name": "_destAddr",
          "type": "address"
        },
        {
          "indexed": false,
          "internalType": "uint256",
          "name": "_amount",
          "type": "uint256"
        }
      ],
      "name": "TransferSent",
      "type": "event"
    },
    {
      "anonymous": false,
      "inputs": [
        {
          "indexed": false,
          "internalType": "address",
          "name": "_from",
          "type": "address"
        },
        {
          "indexed": false,
          "internalType": "address",
          "name": "_destAddr",
          "type": "address"
        },
        {
          "indexed": false,
          "internalType": "uint256",
          "name": "_amount",
          "type": "uint256"
        }
      ],
      "name": "TransferSentErc20",
      "type": "event"
    },
    {
      "inputs": [
        {
          "internalType": "address",
          "name": "_addressToWhitelist",
          "type": "address"
        }
      ],
      "name": "addUserInPlatform",
      "outputs": [],
      "stateMutability": "nonpayable",
      "type": "function"
    },
    {
      "inputs": [],
      "name": "checkLedgerInconsistency",
      "outputs": [
        {
          "internalType": "bool",
          "name": "",
          "type": "bool"
        }
      ],
      "stateMutability": "view",
      "type": "function"
    },
    {
      "inputs": [
        {
          "internalType": "uint256",
          "name": "_amount",
          "type": "uint256"
        }
      ],
      "name": "depositErc20",
      "outputs": [],
      "stateMutability": "nonpayable",
      "type": "function"
    },
    {
      "inputs": [
        {
          "internalType": "uint256",
          "name": "_amount",
          "type": "uint256"
        }
      ],
      "name": "depositEth",
      "outputs": [],
      "stateMutability": "payable",
      "type": "function"
    },
    {
      "inputs": [
        {
          "internalType": "address",
          "name": "_searchAddr",
          "type": "address"
        }
      ],
      "name": "getERC20balanceForUser",
      "outputs": [
        {
          "internalType": "uint256",
          "name": "",
          "type": "uint256"
        }
      ],
      "stateMutability": "view",
      "type": "function"
    },
    {
      "inputs": [
        {
          "internalType": "address",
          "name": "_searchAddr",
          "type": "address"
        }
      ],
      "name": "getEthBalanceForUser",
      "outputs": [
        {
          "internalType": "uint256",
          "name": "",
          "type": "uint256"
        }
      ],
      "stateMutability": "view",
      "type": "function"
    },
    {
      "inputs": [],
      "name": "getEthTotalBalance",
      "outputs": [
        {
          "internalType": "uint256",
          "name": "",
          "type": "uint256"
        }
      ],
      "stateMutability": "view",
      "type": "function"
    },
    {
      "inputs": [],
      "name": "getOwner",
      "outputs": [
        {
          "internalType": "address",
          "name": "",
          "type": "address"
        }
      ],
      "stateMutability": "view",
      "type": "function"
    },
    {
      "inputs": [],
      "name": "getTotalERC20balance",
      "outputs": [
        {
          "internalType": "uint256",
          "name": "",
          "type": "uint256"
        }
      ],
      "stateMutability": "view",
      "type": "function"
    },
    {
      "inputs": [],
      "name": "reinitializeLedger",
      "outputs": [],
      "stateMutability": "nonpayable",
      "type": "function"
    },
    {
      "inputs": [
        {
          "internalType": "address",
          "name": "_delegateToUse",
          "type": "address"
        }
      ],
      "name": "setDelegateToFullWithdraw",
      "outputs": [],
      "stateMutability": "nonpayable",
      "type": "function"
    },
    {
      "inputs": [
        {
          "internalType": "address",
          "name": "_to",
          "type": "address"
        },
        {
          "internalType": "uint256",
          "name": "_amount",
          "type": "uint256"
        }
      ],
      "name": "transferERC20TotalBalance",
      "outputs": [],
      "stateMutability": "nonpayable",
      "type": "function"
    },
    {
      "inputs": [
        {
          "internalType": "address",
          "name": "_whitelistedAddress",
          "type": "address"
        }
      ],
      "name": "verifyUser",
      "outputs": [
        {
          "internalType": "bool",
          "name": "",
          "type": "bool"
        }
      ],
      "stateMutability": "view",
      "type": "function"
    },
    {
      "inputs": [],
      "name": "viewDelegateToUse",
      "outputs": [
        {
          "internalType": "address",
          "name": "",
          "type": "address"
        }
      ],
      "stateMutability": "view",
      "type": "function"
    },
    {
      "inputs": [
        {
          "internalType": "uint256",
          "name": "_amount",
          "type": "uint256"
        }
      ],
      "name": "withdrawERC20ForUser",
      "outputs": [],
      "stateMutability": "nonpayable",
      "type": "function"
    },
    {
      "inputs": [
        {
          "internalType": "uint256",
          "name": "_amount",
          "type": "uint256"
        },
        {
          "internalType": "address payable",
          "name": "_destAddr",
          "type": "address"
        }
      ],
      "name": "withdrawEthForUser",
      "outputs": [],
      "stateMutability": "nonpayable",
      "type": "function"
    },
    {
      "inputs": [
        {
          "internalType": "uint256",
          "name": "_amount",
          "type": "uint256"
        },
        {
          "internalType": "address payable",
          "name": "_destAddr",
          "type": "address"
        }
      ],
      "name": "withdrawEthTotalBalance",
      "outputs": [],
      "stateMutability": "nonpayable",
      "type": "function"
    }
  ],
  "bytecode": "608060405260405161166b38038061166b83398101604081905261002291610095565b60008054336001600160a01b031991821681178355600180548316821781559083526005602090815260408085203490819055600255600380549094166001600160a01b03969096169590951783556004905292909120805460ff1916909217909155805460ff60a01b191690556100c5565b6000602082840312156100a757600080fd5b81516001600160a01b03811681146100be57600080fd5b9392505050565b611597806100d46000396000f3fe6080604052600436106100fe5760003560e01c806372cc407611610095578063b9fc66f011610064578063b9fc66f014610290578063e2477f47146102b0578063e81fa8d9146102d0578063ef71c26a146102f0578063f29acf881461030357600080fd5b806372cc4076146102005780637956a54614610220578063893d20e814610252578063b15fe5ea1461027057600080fd5b80633ee4ad80116100d15780633ee4ad801461018b5780634d813120146101b657806363390d93146101d657806370b1b416146101eb57600080fd5b806302390b63146101035780630f4d14e91461012557806312851002146101385780632176166c14610158575b600080fd5b34801561010f57600080fd5b5061012361011e366004611146565b610323565b005b610123610133366004611146565b6104fc565b34801561014457600080fd5b50610123610153366004611146565b610653565b34801561016457600080fd5b50610178610173366004611177565b61077a565b6040519081526020015b60405180910390f35b34801561019757600080fd5b50600354600160a01b900460ff165b6040519015158152602001610182565b3480156101c257600080fd5b506101a66101d1366004611177565b6107eb565b3480156101e257600080fd5b50610178610809565b3480156101f757600080fd5b5061012361087b565b34801561020c57600080fd5b5061012361021b36600461119b565b610a41565b34801561022c57600080fd5b506001546001600160a01b03165b6040516001600160a01b039091168152602001610182565b34801561025e57600080fd5b506000546001600160a01b031661023a565b34801561027c57600080fd5b5061012361028b3660046111cb565b610ba8565b34801561029c57600080fd5b506101236102ab366004611177565b610d44565b3480156102bc57600080fd5b506101236102cb36600461119b565b610dbc565b3480156102dc57600080fd5b506101236102eb366004611177565b610fbe565b3480156102fc57600080fd5b5047610178565b34801561030f57600080fd5b5061017861031e366004611177565b6110d5565b33818061032f8361077a565b101580156103a857506003546040516370a0823160e01b81523060048201526001600160a01b03909116906370a0823190602401602060405180830381865afa158015610380573d6000803e3d6000fd5b505050506040513d601f19601f820116820180604052508101906103a491906111f7565b8111155b6103cd5760405162461bcd60e51b81526004016103c490611210565b60405180910390fd5b600354600160a01b900460ff16156103f75760405162461bcd60e51b81526004016103c490611262565b610400336107eb565b15156001146104215760405162461bcd60e51b81526004016103c490611302565b60035460405163a9059cbb60e01b8152336004820152602481018590526001600160a01b039091169063a9059cbb906044016020604051808303816000875af1158015610472573d6000803e3d6000fd5b505050506040513d601f19601f820116820180604052508101906104969190611373565b5033600090815260066020526040812080548592906104b69084906113ab565b90915550506040517fda340efe41974f80bad5aded3df216ff7c71a09d536711b5e481b6d3bb69a3d0906104ef903390819087906113c2565b60405180910390a1505050565b33610506816107eb565b15156001146105275760405162461bcd60e51b81526004016103c4906113e6565b600354600160a01b900460ff16156105515760405162461bcd60e51b81526004016103c490611262565b3482146105db5760405162461bcd60e51b815260206004820152604c60248201527f417474656e74696f6e2c20736574207468652073616d652076616c756520696e60448201527f207468652027616d6f756e742720616e64202776616c756527207472616e736160648201526b6374696f6e206669656c647360a01b608482015260a4016103c4565b34600260008282546105ed9190611458565b90915550503360009081526005602052604081208054349290610611908490611458565b9091555050604080513381523460208201527ff1b03f708b9c39f453fe3f0cef84164c7d6f7df836df0796e1e9c2bce6ee397e91015b60405180910390a15050565b3361065d816107eb565b151560011461067e5760405162461bcd60e51b81526004016103c4906113e6565b600354600160a01b900460ff16156106a85760405162461bcd60e51b81526004016103c490611262565b6003546040516323b872dd60e01b81526001600160a01b03909116906323b872dd906106dc903390309087906004016113c2565b6020604051808303816000875af11580156106fb573d6000803e3d6000fd5b505050506040513d601f19601f8201168201806040525081019061071f9190611373565b50336000908152600660205260408120805484929061073f908490611458565b909155505060408051338152602081018490527f27f44e9a3001987fb4861e2d482738bc6a12b52de72ca3a5216157b75c28f81c9101610647565b600354600090600160a01b900460ff16156107a75760405162461bcd60e51b81526004016103c490611262565b6001600160a01b03821633146107cf5760405162461bcd60e51b81526004016103c490611470565b506001600160a01b031660009081526006602052604090205490565b6001600160a01b031660009081526004602052604090205460ff1690565b6003546040516370a0823160e01b81523060048201526000916001600160a01b0316906370a0823190602401602060405180830381865afa158015610852573d6000803e3d6000fd5b505050506040513d601f19601f8201168201806040525081019061087691906111f7565b905090565b6000546001600160a01b031633146108a55760405162461bcd60e51b81526004016103c4906114cd565b600354600160a01b900460ff16151560011461094f5760405162461bcd60e51b815260206004820152605860248201527f696e766f6b61626c652066756e6374696f6e206f6e6c79206966204c6564676560448201527f72206f66206465706f736974732069732062726f6b656e20627920776974686460648201527f726177616c2066726f6d20746f74616c2062616c616e63650000000000000000608482015260a4016103c4565b600054600180546001600160a01b0319166001600160a01b039283169081179091556003549091169063a9059cbb90610986610809565b6040516001600160e01b031960e085901b1681526001600160a01b03909216600483015260248201526044016020604051808303816000875af11580156109d1573d6000803e3d6000fd5b505050506040513d601f19601f820116820180604052508101906109f59190611373565b50600080546002546040516001600160a01b039092169281156108fc029290818181858888f19350505050158015610a31573d6000803e3d6000fd5b506003805460ff60a01b19169055565b610a4a816107eb565b1515600114610a6b5760405162461bcd60e51b81526004016103c490611302565b6000546001600160a01b0316331480610a8e57506001546001600160a01b031633145b610aaa5760405162461bcd60e51b81526004016103c490611518565b600254821115610af15760405162461bcd60e51b8152602060048201526012602482015271496e73756666696369656e742066756e647360701b60448201526064016103c4565b6040516001600160a01b0382169083156108fc029084906000818181858888f19350505050158015610b27573d6000803e3d6000fd5b508160026000828254610b3a91906113ab565b90915550506040517ffda3a3e0e1479b43cb1c701f7576187f4c4ad80768d627387e00184302f7d88e90610b73903390849086906113c2565b60405180910390a160025415801590610b8b57508115155b15610ba4576003805460ff60a01b1916600160a01b1790555b5050565b610bb1826107eb565b1515600114610bd25760405162461bcd60e51b81526004016103c490611302565b6000546001600160a01b0316331480610bf557506001546001600160a01b031633145b610c115760405162461bcd60e51b81526004016103c490611518565b6000610c1b610809565b905080821115610c5e5760405162461bcd60e51b815260206004820152600e60248201526d62616c616e6365206973206c6f7760901b60448201526064016103c4565b60035460405163a9059cbb60e01b81526001600160a01b038581166004830152602482018590529091169063a9059cbb906044016020604051808303816000875af1158015610cb1573d6000803e3d6000fd5b505050506040513d601f19601f82011682018060405250810190610cd59190611373565b507fda340efe41974f80bad5aded3df216ff7c71a09d536711b5e481b6d3bb69a3d0338484604051610d09939291906113c2565b60405180910390a1610d19610809565b15801590610d2657508115155b15610d3f576003805460ff60a01b1916600160a01b1790555b505050565b6000546001600160a01b03163314610d6e5760405162461bcd60e51b81526004016103c4906114cd565b600354600160a01b900460ff1615610d985760405162461bcd60e51b81526004016103c490611262565b6001600160a01b03166000908152600460205260409020805460ff19166001179055565b813381610dc8826110d5565b10158015610dd857506002548211155b610df45760405162461bcd60e51b81526004016103c490611210565b600354600160a01b900460ff1615610e1e5760405162461bcd60e51b81526004016103c490611262565b6001600160a01b0383163314610e905760405162461bcd60e51b815260206004820152603160248201527f596f752063616e207769746864726177206f6e6c7920796f75722066756e647360448201527020696e20796f757220616464726573732160781b60648201526084016103c4565b610e99336107eb565b1515600114610eba5760405162461bcd60e51b81526004016103c490611302565b600254841115610f015760405162461bcd60e51b8152602060048201526012602482015271496e73756666696369656e742066756e647360701b60448201526064016103c4565b6040516001600160a01b0384169085156108fc029086906000818181858888f19350505050158015610f37573d6000803e3d6000fd5b508360026000828254610f4a91906113ab565b90915550506001600160a01b03831660009081526005602052604081208054869290610f779084906113ab565b90915550506040517ffda3a3e0e1479b43cb1c701f7576187f4c4ad80768d627387e00184302f7d88e90610fb0903390869088906113c2565b60405180910390a150505050565b6000546001600160a01b03163314610fe85760405162461bcd60e51b81526004016103c4906114cd565b600354600160a01b900460ff16156110125760405162461bcd60e51b81526004016103c490611262565b61101b816107eb565b151560011461106c5760405162461bcd60e51b815260206004820152601760248201527f6e6f6e2d77686974656c6973746564206164647265737300000000000000000060448201526064016103c4565b600154604080516001600160a01b03928316815291831660208301527f2d027cd3f9225738dbaf7c0c783c5d94d77975c87e16e3fa4bf81bcaf1ae91bb910160405180910390a1600180546001600160a01b0319166001600160a01b0392909216919091179055565b600354600090600160a01b900460ff16156111025760405162461bcd60e51b81526004016103c490611262565b6001600160a01b038216331461112a5760405162461bcd60e51b81526004016103c490611470565b506001600160a01b031660009081526005602052604090205490565b60006020828403121561115857600080fd5b5035919050565b6001600160a01b038116811461117457600080fd5b50565b60006020828403121561118957600080fd5b81356111948161115f565b9392505050565b600080604083850312156111ae57600080fd5b8235915060208301356111c08161115f565b809150509250929050565b600080604083850312156111de57600080fd5b82356111e98161115f565b946020939093013593505050565b60006020828403121561120957600080fd5b5051919050565b60208082526032908201527f596f7520686176656e277420656e6f7567682066756e6473206465706f7369746040820152710cac840d2dc40e8d0ca409adedccaf284def60731b606082015260800190565b60208082526074908201527f4c6564676572206f66206465706f7369747320686173206265656e2062726f6b60408201527f656e206279207769746864726177616c206f6620746f74616c2062616c616e6360608201527f652066726f6d206f776e6572206f72206869732064656c65676174653b2066756080820152736e6374696f6e206e6f7420696e766f6b61626c6560601b60a082015260c00190565b6020808252604b908201527f7472616e73666572206e6f7420616c6c6f7765642c2061646472657373206e6f60408201527f742062656c6f6e67696e6720746f2074686520706c6174666f726d2f6e6f6e2d60608201526a1dda1a5d195b1a5cdd195960aa1b608082015260a00190565b60006020828403121561138557600080fd5b8151801515811461119457600080fd5b634e487b7160e01b600052601160045260246000fd5b6000828210156113bd576113bd611395565b500390565b6001600160a01b039384168152919092166020820152604081019190915260600190565b6020808252604c908201527f6f7065726174696f6e206e6f7420616c6c6f7765642c2061646472657373206e60408201527f6f742062656c6f6e67696e6720746f2074686520706c6174666f726d2f6e6f6e60608201526b0b5dda1a5d195b1a5cdd195960a21b608082015260a00190565b6000821982111561146b5761146b611395565b500190565b6020808252603b908201527f796f752063616e6e6f7420636865636b207468652062616c616e636573206f6660408201527f206f7468657220616464726573736573207468616e20796f7572730000000000606082015260800190565b6020808252602b908201527f4f6e6c79206f776e65722063616e207365742077686f2063616e20557365207460408201526a0d0ca409adedccaf284def60ab1b606082015260800190565b60208082526029908201527f4f6e6c79206f776e6572206f722064656c65676174652063616e2077697468646040820152687261772066756e647360b81b60608201526080019056fea2646970667358221220754d9c8ffbd831d5632f6bffe5aacffd2e132b52a13a0faeecdf468d29d4bf2c64736f6c634300080f0033",
  "bytecodeSha1": "cb4da0cbe1fbee3ca8aa4cc1c0858d4ded4ee253",
  "compiler": {
    "evm_version": "istanbul",
    "optimizer": {
      "enabled": true,
      "runs": 200
    },
    "version": "0.8.15+commit.e14f2714"
  },
  "contractName": "MoneyBoxErc20",
  "language": "Solidity",
  "natspec": {
    "kind": "dev",
    "methods": {},
    "version": 1
  },
  "opcodes": "PUSH1 0x80 PUSH1 0x40 MSTORE PUSH1 0x4 CALLDATASIZE LT PUSH2 0xFE JUMPI PUSH1 0x0 CALLDATALOAD PUSH1 0xE0 SHR DUP1 PUSH4 0x72CC4076 GT PUSH2 0x95 JUMPI DUP1 PUSH4 0xB9FC66F0 GT PUSH2 0x64 JUMPI DUP1 PUSH4 0xB9FC66F0 EQ PUSH2 0x290 JUMPI DUP1 PUSH4 0xE2477F47 EQ PUSH2 0x2B0 JUMPI DUP1 PUSH4 0xE81FA8D9 EQ PUSH2 0x2D0 JUMPI DUP1 PUSH4 0xEF71C26A EQ PUSH2 0x2F0 JUMPI DUP1 PUSH4 0xF29ACF88 EQ PUSH2 0x303 JUMPI PUSH1 0x0 DUP1 REVERT JUMPDEST DUP1 PUSH4 0x72CC4076 EQ PUSH2 0x200 JUMPI DUP1 PUSH4 0x7956A546 EQ PUSH2 0x220 JUMPI DUP1 PUSH4 0x893D20E8 EQ PUSH2 0x252 JUMPI DUP1 PUSH4 0xB15FE5EA EQ PUSH2 0x270 JUMPI PUSH1 0x0 DUP1 REVERT JUMPDEST DUP1 PUSH4 0x3EE4AD80 GT PUSH2 0xD1 JUMPI DUP1 PUSH4 0x3EE4AD80 EQ PUSH2 0x18B JUMPI DUP1 PUSH4 0x4D813120 EQ PUSH2 0x1B6 JUMPI DUP1 PUSH4 0x63390D93 EQ PUSH2 0x1D6 JUMPI DUP1 PUSH4 0x70B1B416 EQ PUSH2 0x1EB JUMPI PUSH1 0x0 DUP1 REVERT JUMPDEST DUP1 PUSH4 0x2390B63 EQ PUSH2 0x103 JUMPI DUP1 PUSH4 0xF4D14E9 EQ PUSH2 0x125 JUMPI DUP1 PUSH4 0x12851002 EQ PUSH2 0x138 JUMPI DUP1 PUSH4 0x2176166C EQ PUSH2 0x158 JUMPI JUMPDEST PUSH1 0x0 DUP1 REVERT JUMPDEST CALLVALUE DUP1 ISZERO PUSH2 0x10F JUMPI PUSH1 0x0 DUP1 REVERT JUMPDEST POP PUSH2 0x123 PUSH2 0x11E CALLDATASIZE PUSH1 0x4 PUSH2 0x1146 JUMP JUMPDEST PUSH2 0x323 JUMP JUMPDEST STOP JUMPDEST PUSH2 0x123 PUSH2 0x133 CALLDATASIZE PUSH1 0x4 PUSH2 0x1146 JUMP JUMPDEST PUSH2 0x4FC JUMP JUMPDEST CALLVALUE DUP1 ISZERO PUSH2 0x144 JUMPI PUSH1 0x0 DUP1 REVERT JUMPDEST POP PUSH2 0x123 PUSH2 0x153 CALLDATASIZE PUSH1 0x4 PUSH2 0x1146 JUMP JUMPDEST PUSH2 0x653 JUMP JUMPDEST CALLVALUE DUP1 ISZERO PUSH2 0x164 JUMPI PUSH1 0x0 DUP1 REVERT JUMPDEST POP PUSH2 0x178 PUSH2 0x173 CALLDATASIZE PUSH1 0x4 PUSH2 0x1177 JUMP JUMPDEST PUSH2 0x77A JUMP JUMPDEST PUSH1 0x40 MLOAD SWAP1 DUP2 MSTORE PUSH1 0x20 ADD JUMPDEST PUSH1 0x40 MLOAD DUP1 SWAP2 SUB SWAP1 RETURN JUMPDEST CALLVALUE DUP1 ISZERO PUSH2 0x197 JUMPI PUSH1 0x0 DUP1 REVERT JUMPDEST POP PUSH1 0x3 SLOAD PUSH1 0x1 PUSH1 0xA0 SHL SWAP1 DIV PUSH1 0xFF AND JUMPDEST PUSH1 0x40 MLOAD SWAP1 ISZERO ISZERO DUP2 MSTORE PUSH1 0x20 ADD PUSH2 0x182 JUMP JUMPDEST CALLVALUE DUP1 ISZERO PUSH2 0x1C2 JUMPI PUSH1 0x0 DUP1 REVERT JUMPDEST POP PUSH2 0x1A6 PUSH2 0x1D1 CALLDATASIZE PUSH1 0x4 PUSH2 0x1177 JUMP JUMPDEST PUSH2 0x7EB JUMP JUMPDEST CALLVALUE DUP1 ISZERO PUSH2 0x1E2 JUMPI PUSH1 0x0 DUP1 REVERT JUMPDEST POP PUSH2 0x178 PUSH2 0x809 JUMP JUMPDEST CALLVALUE DUP1 ISZERO PUSH2 0x1F7 JUMPI PUSH1 0x0 DUP1 REVERT JUMPDEST POP PUSH2 0x123 PUSH2 0x87B JUMP JUMPDEST CALLVALUE DUP1 ISZERO PUSH2 0x20C JUMPI PUSH1 0x0 DUP1 REVERT JUMPDEST POP PUSH2 0x123 PUSH2 0x21B CALLDATASIZE PUSH1 0x4 PUSH2 0x119B JUMP JUMPDEST PUSH2 0xA41 JUMP JUMPDEST CALLVALUE DUP1 ISZERO PUSH2 0x22C JUMPI PUSH1 0x0 DUP1 REVERT JUMPDEST POP PUSH1 0x1 SLOAD PUSH1 0x1 PUSH1 0x1 PUSH1 0xA0 SHL SUB AND JUMPDEST PUSH1 0x40 MLOAD PUSH1 0x1 PUSH1 0x1 PUSH1 0xA0 SHL SUB SWAP1 SWAP2 AND DUP2 MSTORE PUSH1 0x20 ADD PUSH2 0x182 JUMP JUMPDEST CALLVALUE DUP1 ISZERO PUSH2 0x25E JUMPI PUSH1 0x0 DUP1 REVERT JUMPDEST POP PUSH1 0x0 SLOAD PUSH1 0x1 PUSH1 0x1 PUSH1 0xA0 SHL SUB AND PUSH2 0x23A JUMP JUMPDEST CALLVALUE DUP1 ISZERO PUSH2 0x27C JUMPI PUSH1 0x0 DUP1 REVERT JUMPDEST POP PUSH2 0x123 PUSH2 0x28B CALLDATASIZE PUSH1 0x4 PUSH2 0x11CB JUMP JUMPDEST PUSH2 0xBA8 JUMP JUMPDEST CALLVALUE DUP1 ISZERO PUSH2 0x29C JUMPI PUSH1 0x0 DUP1 REVERT JUMPDEST POP PUSH2 0x123 PUSH2 0x2AB CALLDATASIZE PUSH1 0x4 PUSH2 0x1177 JUMP JUMPDEST PUSH2 0xD44 JUMP JUMPDEST CALLVALUE DUP1 ISZERO PUSH2 0x2BC JUMPI PUSH1 0x0 DUP1 REVERT JUMPDEST POP PUSH2 0x123 PUSH2 0x2CB CALLDATASIZE PUSH1 0x4 PUSH2 0x119B JUMP JUMPDEST PUSH2 0xDBC JUMP JUMPDEST CALLVALUE DUP1 ISZERO PUSH2 0x2DC JUMPI PUSH1 0x0 DUP1 REVERT JUMPDEST POP PUSH2 0x123 PUSH2 0x2EB CALLDATASIZE PUSH1 0x4 PUSH2 0x1177 JUMP JUMPDEST PUSH2 0xFBE JUMP JUMPDEST CALLVALUE DUP1 ISZERO PUSH2 0x2FC JUMPI PUSH1 0x0 DUP1 REVERT JUMPDEST POP SELFBALANCE PUSH2 0x178 JUMP JUMPDEST CALLVALUE DUP1 ISZERO PUSH2 0x30F JUMPI PUSH1 0x0 DUP1 REVERT JUMPDEST POP PUSH2 0x178 PUSH2 0x31E CALLDATASIZE PUSH1 0x4 PUSH2 0x1177 JUMP JUMPDEST PUSH2 0x10D5 JUMP JUMPDEST CALLER DUP2 DUP1 PUSH2 0x32F DUP4 PUSH2 0x77A JUMP JUMPDEST LT ISZERO DUP1 ISZERO PUSH2 0x3A8 JUMPI POP PUSH1 0x3 SLOAD PUSH1 0x40 MLOAD PUSH4 0x70A08231 PUSH1 0xE0 SHL DUP2 MSTORE ADDRESS PUSH1 0x4 DUP3 ADD MSTORE PUSH1 0x1 PUSH1 0x1 PUSH1 0xA0 SHL SUB SWAP1 SWAP2 AND SWAP1 PUSH4 0x70A08231 SWAP1 PUSH1 0x24 ADD PUSH1 0x20 PUSH1 0x40 MLOAD DUP1 DUP4 SUB DUP2 DUP7 GAS STATICCALL ISZERO DUP1 ISZERO PUSH2 0x380 JUMPI RETURNDATASIZE PUSH1 0x0 DUP1 RETURNDATACOPY RETURNDATASIZE PUSH1 0x0 REVERT JUMPDEST POP POP POP POP PUSH1 0x40 MLOAD RETURNDATASIZE PUSH1 0x1F NOT PUSH1 0x1F DUP3 ADD AND DUP3 ADD DUP1 PUSH1 0x40 MSTORE POP DUP2 ADD SWAP1 PUSH2 0x3A4 SWAP2 SWAP1 PUSH2 0x11F7 JUMP JUMPDEST DUP2 GT ISZERO JUMPDEST PUSH2 0x3CD JUMPI PUSH1 0x40 MLOAD PUSH3 0x461BCD PUSH1 0xE5 SHL DUP2 MSTORE PUSH1 0x4 ADD PUSH2 0x3C4 SWAP1 PUSH2 0x1210 JUMP JUMPDEST PUSH1 0x40 MLOAD DUP1 SWAP2 SUB SWAP1 REVERT JUMPDEST PUSH1 0x3 SLOAD PUSH1 0x1 PUSH1 0xA0 SHL SWAP1 DIV PUSH1 0xFF AND ISZERO PUSH2 0x3F7 JUMPI PUSH1 0x40 MLOAD PUSH3 0x461BCD PUSH1 0xE5 SHL DUP2 MSTORE PUSH1 0x4 ADD PUSH2 0x3C4 SWAP1 PUSH2 0x1262 JUMP JUMPDEST PUSH2 0x400 CALLER PUSH2 0x7EB JUMP JUMPDEST ISZERO ISZERO PUSH1 0x1 EQ PUSH2 0x421 JUMPI PUSH1 0x40 MLOAD PUSH3 0x461BCD PUSH1 0xE5 SHL DUP2 MSTORE PUSH1 0x4 ADD PUSH2 0x3C4 SWAP1 PUSH2 0x1302 JUMP JUMPDEST PUSH1 0x3 SLOAD PUSH1 0x40 MLOAD PUSH4 0xA9059CBB PUSH1 0xE0 SHL DUP2 MSTORE CALLER PUSH1 0x4 DUP3 ADD MSTORE PUSH1 0x24 DUP2 ADD DUP6 SWAP1 MSTORE PUSH1 0x1 PUSH1 0x1 PUSH1 0xA0 SHL SUB SWAP1 SWAP2 AND SWAP1 PUSH4 0xA9059CBB SWAP1 PUSH1 0x44 ADD PUSH1 0x20 PUSH1 0x40 MLOAD DUP1 DUP4 SUB DUP2 PUSH1 0x0 DUP8 GAS CALL ISZERO DUP1 ISZERO PUSH2 0x472 JUMPI RETURNDATASIZE PUSH1 0x0 DUP1 RETURNDATACOPY RETURNDATASIZE PUSH1 0x0 REVERT JUMPDEST POP POP POP POP PUSH1 0x40 MLOAD RETURNDATASIZE PUSH1 0x1F NOT PUSH1 0x1F DUP3 ADD AND DUP3 ADD DUP1 PUSH1 0x40 MSTORE POP DUP2 ADD SWAP1 PUSH2 0x496 SWAP2 SWAP1 PUSH2 0x1373 JUMP JUMPDEST POP CALLER PUSH1 0x0 SWAP1 DUP2 MSTORE PUSH1 0x6 PUSH1 0x20 MSTORE PUSH1 0x40 DUP2 KECCAK256 DUP1 SLOAD DUP6 SWAP3 SWAP1 PUSH2 0x4B6 SWAP1 DUP5 SWAP1 PUSH2 0x13AB JUMP JUMPDEST SWAP1 SWAP2 SSTORE POP POP PUSH1 0x40 MLOAD PUSH32 0xDA340EFE41974F80BAD5ADED3DF216FF7C71A09D536711B5E481B6D3BB69A3D0 SWAP1 PUSH2 0x4EF SWAP1 CALLER SWAP1 DUP2 SWAP1 DUP8 SWAP1 PUSH2 0x13C2 JUMP JUMPDEST PUSH1 0x40 MLOAD DUP1 SWAP2 SUB SWAP1 LOG1 POP POP POP JUMP JUMPDEST CALLER PUSH2 0x506 DUP2 PUSH2 0x7EB JUMP JUMPDEST ISZERO ISZERO PUSH1 0x1 EQ PUSH2 0x527 JUMPI PUSH1 0x40 MLOAD PUSH3 0x461BCD PUSH1 0xE5 SHL DUP2 MSTORE PUSH1 0x4 ADD PUSH2 0x3C4 SWAP1 PUSH2 0x13E6 JUMP JUMPDEST PUSH1 0x3 SLOAD PUSH1 0x1 PUSH1 0xA0 SHL SWAP1 DIV PUSH1 0xFF AND ISZERO PUSH2 0x551 JUMPI PUSH1 0x40 MLOAD PUSH3 0x461BCD PUSH1 0xE5 SHL DUP2 MSTORE PUSH1 0x4 ADD PUSH2 0x3C4 SWAP1 PUSH2 0x1262 JUMP JUMPDEST CALLVALUE DUP3 EQ PUSH2 0x5DB JUMPI PUSH1 0x40 MLOAD PUSH3 0x461BCD PUSH1 0xE5 SHL DUP2 MSTORE PUSH1 0x20 PUSH1 0x4 DUP3 ADD MSTORE PUSH1 0x4C PUSH1 0x24 DUP3 ADD MSTORE PUSH32 0x417474656E74696F6E2C20736574207468652073616D652076616C756520696E PUSH1 0x44 DUP3 ADD MSTORE PUSH32 0x207468652027616D6F756E742720616E64202776616C756527207472616E7361 PUSH1 0x64 DUP3 ADD MSTORE PUSH12 0x6374696F6E206669656C6473 PUSH1 0xA0 SHL PUSH1 0x84 DUP3 ADD MSTORE PUSH1 0xA4 ADD PUSH2 0x3C4 JUMP JUMPDEST CALLVALUE PUSH1 0x2 PUSH1 0x0 DUP3 DUP3 SLOAD PUSH2 0x5ED SWAP2 SWAP1 PUSH2 0x1458 JUMP JUMPDEST SWAP1 SWAP2 SSTORE POP POP CALLER PUSH1 0x0 SWAP1 DUP2 MSTORE PUSH1 0x5 PUSH1 0x20 MSTORE PUSH1 0x40 DUP2 KECCAK256 DUP1 SLOAD CALLVALUE SWAP3 SWAP1 PUSH2 0x611 SWAP1 DUP5 SWAP1 PUSH2 0x1458 JUMP JUMPDEST SWAP1 SWAP2 SSTORE POP POP PUSH1 0x40 DUP1 MLOAD CALLER DUP2 MSTORE CALLVALUE PUSH1 0x20 DUP3 ADD MSTORE PUSH32 0xF1B03F708B9C39F453FE3F0CEF84164C7D6F7DF836DF0796E1E9C2BCE6EE397E SWAP2 ADD JUMPDEST PUSH1 0x40 MLOAD DUP1 SWAP2 SUB SWAP1 LOG1 POP POP JUMP JUMPDEST CALLER PUSH2 0x65D DUP2 PUSH2 0x7EB JUMP JUMPDEST ISZERO ISZERO PUSH1 0x1 EQ PUSH2 0x67E JUMPI PUSH1 0x40 MLOAD PUSH3 0x461BCD PUSH1 0xE5 SHL DUP2 MSTORE PUSH1 0x4 ADD PUSH2 0x3C4 SWAP1 PUSH2 0x13E6 JUMP JUMPDEST PUSH1 0x3 SLOAD PUSH1 0x1 PUSH1 0xA0 SHL SWAP1 DIV PUSH1 0xFF AND ISZERO PUSH2 0x6A8 JUMPI PUSH1 0x40 MLOAD PUSH3 0x461BCD PUSH1 0xE5 SHL DUP2 MSTORE PUSH1 0x4 ADD PUSH2 0x3C4 SWAP1 PUSH2 0x1262 JUMP JUMPDEST PUSH1 0x3 SLOAD PUSH1 0x40 MLOAD PUSH4 0x23B872DD PUSH1 0xE0 SHL DUP2 MSTORE PUSH1 0x1 PUSH1 0x1 PUSH1 0xA0 SHL SUB SWAP1 SWAP2 AND SWAP1 PUSH4 0x23B872DD SWAP1 PUSH2 0x6DC SWAP1 CALLER SWAP1 ADDRESS SWAP1 DUP8 SWAP1 PUSH1 0x4 ADD PUSH2 0x13C2 JUMP JUMPDEST PUSH1 0x20 PUSH1 0x40 MLOAD DUP1 DUP4 SUB DUP2 PUSH1 0x0 DUP8 GAS CALL ISZERO DUP1 ISZERO PUSH2 0x6FB JUMPI RETURNDATASIZE PUSH1 0x0 DUP1 RETURNDATACOPY RETURNDATASIZE PUSH1 0x0 REVERT JUMPDEST POP POP POP POP PUSH1 0x40 MLOAD RETURNDATASIZE PUSH1 0x1F NOT PUSH1 0x1F DUP3 ADD AND DUP3 ADD DUP1 PUSH1 0x40 MSTORE POP DUP2 ADD SWAP1 PUSH2 0x71F SWAP2 SWAP1 PUSH2 0x1373 JUMP JUMPDEST POP CALLER PUSH1 0x0 SWAP1 DUP2 MSTORE PUSH1 0x6 PUSH1 0x20 MSTORE PUSH1 0x40 DUP2 KECCAK256 DUP1 SLOAD DUP5 SWAP3 SWAP1 PUSH2 0x73F SWAP1 DUP5 SWAP1 PUSH2 0x1458 JUMP JUMPDEST SWAP1 SWAP2 SSTORE POP POP PUSH1 0x40 DUP1 MLOAD CALLER DUP2 MSTORE PUSH1 0x20 DUP2 ADD DUP5 SWAP1 MSTORE PUSH32 0x27F44E9A3001987FB4861E2D482738BC6A12B52DE72CA3A5216157B75C28F81C SWAP2 ADD PUSH2 0x647 JUMP JUMPDEST PUSH1 0x3 SLOAD PUSH1 0x0 SWAP1 PUSH1 0x1 PUSH1 0xA0 SHL SWAP1 DIV PUSH1 0xFF AND ISZERO PUSH2 0x7A7 JUMPI PUSH1 0x40 MLOAD PUSH3 0x461BCD PUSH1 0xE5 SHL DUP2 MSTORE PUSH1 0x4 ADD PUSH2 0x3C4 SWAP1 PUSH2 0x1262 JUMP JUMPDEST PUSH1 0x1 PUSH1 0x1 PUSH1 0xA0 SHL SUB DUP3 AND CALLER EQ PUSH2 0x7CF JUMPI PUSH1 0x40 MLOAD PUSH3 0x461BCD PUSH1 0xE5 SHL DUP2 MSTORE PUSH1 0x4 ADD PUSH2 0x3C4 SWAP1 PUSH2 0x1470 JUMP JUMPDEST POP PUSH1 0x1 PUSH1 0x1 PUSH1 0xA0 SHL SUB AND PUSH1 0x0 SWAP1 DUP2 MSTORE PUSH1 0x6 PUSH1 0x20 MSTORE PUSH1 0x40 SWAP1 KECCAK256 SLOAD SWAP1 JUMP JUMPDEST PUSH1 0x1 PUSH1 0x1 PUSH1 0xA0 SHL SUB AND PUSH1 0x0 SWAP1 DUP2 MSTORE PUSH1 0x4 PUSH1 0x20 MSTORE PUSH1 0x40 SWAP1 KECCAK256 SLOAD PUSH1 0xFF AND SWAP1 JUMP JUMPDEST PUSH1 0x3 SLOAD PUSH1 0x40 MLOAD PUSH4 0x70A08231 PUSH1 0xE0 SHL DUP2 MSTORE ADDRESS PUSH1 0x4 DUP3 ADD MSTORE PUSH1 0x0 SWAP2 PUSH1 0x1 PUSH1 0x1 PUSH1 0xA0 SHL SUB AND SWAP1 PUSH4 0x70A08231 SWAP1 PUSH1 0x24 ADD PUSH1 0x20 PUSH1 0x40 MLOAD DUP1 DUP4 SUB DUP2 DUP7 GAS STATICCALL ISZERO DUP1 ISZERO PUSH2 0x852 JUMPI RETURNDATASIZE PUSH1 0x0 DUP1 RETURNDATACOPY RETURNDATASIZE PUSH1 0x0 REVERT JUMPDEST POP POP POP POP PUSH1 0x40 MLOAD RETURNDATASIZE PUSH1 0x1F NOT PUSH1 0x1F DUP3 ADD AND DUP3 ADD DUP1 PUSH1 0x40 MSTORE POP DUP2 ADD SWAP1 PUSH2 0x876 SWAP2 SWAP1 PUSH2 0x11F7 JUMP JUMPDEST SWAP1 POP SWAP1 JUMP JUMPDEST PUSH1 0x0 SLOAD PUSH1 0x1 PUSH1 0x1 PUSH1 0xA0 SHL SUB AND CALLER EQ PUSH2 0x8A5 JUMPI PUSH1 0x40 MLOAD PUSH3 0x461BCD PUSH1 0xE5 SHL DUP2 MSTORE PUSH1 0x4 ADD PUSH2 0x3C4 SWAP1 PUSH2 0x14CD JUMP JUMPDEST PUSH1 0x3 SLOAD PUSH1 0x1 PUSH1 0xA0 SHL SWAP1 DIV PUSH1 0xFF AND ISZERO ISZERO PUSH1 0x1 EQ PUSH2 0x94F JUMPI PUSH1 0x40 MLOAD PUSH3 0x461BCD PUSH1 0xE5 SHL DUP2 MSTORE PUSH1 0x20 PUSH1 0x4 DUP3 ADD MSTORE PUSH1 0x58 PUSH1 0x24 DUP3 ADD MSTORE PUSH32 0x696E766F6B61626C652066756E6374696F6E206F6E6C79206966204C65646765 PUSH1 0x44 DUP3 ADD MSTORE PUSH32 0x72206F66206465706F736974732069732062726F6B656E206279207769746864 PUSH1 0x64 DUP3 ADD MSTORE PUSH32 0x726177616C2066726F6D20746F74616C2062616C616E63650000000000000000 PUSH1 0x84 DUP3 ADD MSTORE PUSH1 0xA4 ADD PUSH2 0x3C4 JUMP JUMPDEST PUSH1 0x0 SLOAD PUSH1 0x1 DUP1 SLOAD PUSH1 0x1 PUSH1 0x1 PUSH1 0xA0 SHL SUB NOT AND PUSH1 0x1 PUSH1 0x1 PUSH1 0xA0 SHL SUB SWAP3 DUP4 AND SWAP1 DUP2 OR SWAP1 SWAP2 SSTORE PUSH1 0x3 SLOAD SWAP1 SWAP2 AND SWAP1 PUSH4 0xA9059CBB SWAP1 PUSH2 0x986 PUSH2 0x809 JUMP JUMPDEST PUSH1 0x40 MLOAD PUSH1 0x1 PUSH1 0x1 PUSH1 0xE0 SHL SUB NOT PUSH1 0xE0 DUP6 SWAP1 SHL AND DUP2 MSTORE PUSH1 0x1 PUSH1 0x1 PUSH1 0xA0 SHL SUB SWAP1 SWAP3 AND PUSH1 0x4 DUP4 ADD MSTORE PUSH1 0x24 DUP3 ADD MSTORE PUSH1 0x44 ADD PUSH1 0x20 PUSH1 0x40 MLOAD DUP1 DUP4 SUB DUP2 PUSH1 0x0 DUP8 GAS CALL ISZERO DUP1 ISZERO PUSH2 0x9D1 JUMPI RETURNDATASIZE PUSH1 0x0 DUP1 RETURNDATACOPY RETURNDATASIZE PUSH1 0x0 REVERT JUMPDEST POP POP POP POP PUSH1 0x40 MLOAD RETURNDATASIZE PUSH1 0x1F NOT PUSH1 0x1F DUP3 ADD AND DUP3 ADD DUP1 PUSH1 0x40 MSTORE POP DUP2 ADD SWAP1 PUSH2 0x9F5 SWAP2 SWAP1 PUSH2 0x1373 JUMP JUMPDEST POP PUSH1 0x0 DUP1 SLOAD PUSH1 0x2 SLOAD PUSH1 0x40 MLOAD PUSH1 0x1 PUSH1 0x1 PUSH1 0xA0 SHL SUB SWAP1 SWAP3 AND SWAP3 DUP2 ISZERO PUSH2 0x8FC MUL SWAP3 SWAP1 DUP2 DUP2 DUP2 DUP6 DUP9 DUP9 CALL SWAP4 POP POP POP POP ISZERO DUP1 ISZERO PUSH2 0xA31 JUMPI RETURNDATASIZE PUSH1 0x0 DUP1 RETURNDATACOPY RETURNDATASIZE PUSH1 0x0 REVERT JUMPDEST POP PUSH1 0x3 DUP1 SLOAD PUSH1 0xFF PUSH1 0xA0 SHL NOT AND SWAP1 SSTORE JUMP JUMPDEST PUSH2 0xA4A DUP2 PUSH2 0x7EB JUMP JUMPDEST ISZERO ISZERO PUSH1 0x1 EQ PUSH2 0xA6B JUMPI PUSH1 0x40 MLOAD PUSH3 0x461BCD PUSH1 0xE5 SHL DUP2 MSTORE PUSH1 0x4 ADD PUSH2 0x3C4 SWAP1 PUSH2 0x1302 JUMP JUMPDEST PUSH1 0x0 SLOAD PUSH1 0x1 PUSH1 0x1 PUSH1 0xA0 SHL SUB AND CALLER EQ DUP1 PUSH2 0xA8E JUMPI POP PUSH1 0x1 SLOAD PUSH1 0x1 PUSH1 0x1 PUSH1 0xA0 SHL SUB AND CALLER EQ JUMPDEST PUSH2 0xAAA JUMPI PUSH1 0x40 MLOAD PUSH3 0x461BCD PUSH1 0xE5 SHL DUP2 MSTORE PUSH1 0x4 ADD PUSH2 0x3C4 SWAP1 PUSH2 0x1518 JUMP JUMPDEST PUSH1 0x2 SLOAD DUP3 GT ISZERO PUSH2 0xAF1 JUMPI PUSH1 0x40 MLOAD PUSH3 0x461BCD PUSH1 0xE5 SHL DUP2 MSTORE PUSH1 0x20 PUSH1 0x4 DUP3 ADD MSTORE PUSH1 0x12 PUSH1 0x24 DUP3 ADD MSTORE PUSH18 0x496E73756666696369656E742066756E6473 PUSH1 0x70 SHL PUSH1 0x44 DUP3 ADD MSTORE PUSH1 0x64 ADD PUSH2 0x3C4 JUMP JUMPDEST PUSH1 0x40 MLOAD PUSH1 0x1 PUSH1 0x1 PUSH1 0xA0 SHL SUB DUP3 AND SWAP1 DUP4 ISZERO PUSH2 0x8FC MUL SWAP1 DUP5 SWAP1 PUSH1 0x0 DUP2 DUP2 DUP2 DUP6 DUP9 DUP9 CALL SWAP4 POP POP POP POP ISZERO DUP1 ISZERO PUSH2 0xB27 JUMPI RETURNDATASIZE PUSH1 0x0 DUP1 RETURNDATACOPY RETURNDATASIZE PUSH1 0x0 REVERT JUMPDEST POP DUP2 PUSH1 0x2 PUSH1 0x0 DUP3 DUP3 SLOAD PUSH2 0xB3A SWAP2 SWAP1 PUSH2 0x13AB JUMP JUMPDEST SWAP1 SWAP2 SSTORE POP POP PUSH1 0x40 MLOAD PUSH32 0xFDA3A3E0E1479B43CB1C701F7576187F4C4AD80768D627387E00184302F7D88E SWAP1 PUSH2 0xB73 SWAP1 CALLER SWAP1 DUP5 SWAP1 DUP7 SWAP1 PUSH2 0x13C2 JUMP JUMPDEST PUSH1 0x40 MLOAD DUP1 SWAP2 SUB SWAP1 LOG1 PUSH1 0x2 SLOAD ISZERO DUP1 ISZERO SWAP1 PUSH2 0xB8B JUMPI POP DUP2 ISZERO ISZERO JUMPDEST ISZERO PUSH2 0xBA4 JUMPI PUSH1 0x3 DUP1 SLOAD PUSH1 0xFF PUSH1 0xA0 SHL NOT AND PUSH1 0x1 PUSH1 0xA0 SHL OR SWAP1 SSTORE JUMPDEST POP POP JUMP JUMPDEST PUSH2 0xBB1 DUP3 PUSH2 0x7EB JUMP JUMPDEST ISZERO ISZERO PUSH1 0x1 EQ PUSH2 0xBD2 JUMPI PUSH1 0x40 MLOAD PUSH3 0x461BCD PUSH1 0xE5 SHL DUP2 MSTORE PUSH1 0x4 ADD PUSH2 0x3C4 SWAP1 PUSH2 0x1302 JUMP JUMPDEST PUSH1 0x0 SLOAD PUSH1 0x1 PUSH1 0x1 PUSH1 0xA0 SHL SUB AND CALLER EQ DUP1 PUSH2 0xBF5 JUMPI POP PUSH1 0x1 SLOAD PUSH1 0x1 PUSH1 0x1 PUSH1 0xA0 SHL SUB AND CALLER EQ JUMPDEST PUSH2 0xC11 JUMPI PUSH1 0x40 MLOAD PUSH3 0x461BCD PUSH1 0xE5 SHL DUP2 MSTORE PUSH1 0x4 ADD PUSH2 0x3C4 SWAP1 PUSH2 0x1518 JUMP JUMPDEST PUSH1 0x0 PUSH2 0xC1B PUSH2 0x809 JUMP JUMPDEST SWAP1 POP DUP1 DUP3 GT ISZERO PUSH2 0xC5E JUMPI PUSH1 0x40 MLOAD PUSH3 0x461BCD PUSH1 0xE5 SHL DUP2 MSTORE PUSH1 0x20 PUSH1 0x4 DUP3 ADD MSTORE PUSH1 0xE PUSH1 0x24 DUP3 ADD MSTORE PUSH14 0x62616C616E6365206973206C6F77 PUSH1 0x90 SHL PUSH1 0x44 DUP3 ADD MSTORE PUSH1 0x64 ADD PUSH2 0x3C4 JUMP JUMPDEST PUSH1 0x3 SLOAD PUSH1 0x40 MLOAD PUSH4 0xA9059CBB PUSH1 0xE0 SHL DUP2 MSTORE PUSH1 0x1 PUSH1 0x1 PUSH1 0xA0 SHL SUB DUP6 DUP2 AND PUSH1 0x4 DUP4 ADD MSTORE PUSH1 0x24 DUP3 ADD DUP6 SWAP1 MSTORE SWAP1 SWAP2 AND SWAP1 PUSH4 0xA9059CBB SWAP1 PUSH1 0x44 ADD PUSH1 0x20 PUSH1 0x40 MLOAD DUP1 DUP4 SUB DUP2 PUSH1 0x0 DUP8 GAS CALL ISZERO DUP1 ISZERO PUSH2 0xCB1 JUMPI RETURNDATASIZE PUSH1 0x0 DUP1 RETURNDATACOPY RETURNDATASIZE PUSH1 0x0 REVERT JUMPDEST POP POP POP POP PUSH1 0x40 MLOAD RETURNDATASIZE PUSH1 0x1F NOT PUSH1 0x1F DUP3 ADD AND DUP3 ADD DUP1 PUSH1 0x40 MSTORE POP DUP2 ADD SWAP1 PUSH2 0xCD5 SWAP2 SWAP1 PUSH2 0x1373 JUMP JUMPDEST POP PUSH32 0xDA340EFE41974F80BAD5ADED3DF216FF7C71A09D536711B5E481B6D3BB69A3D0 CALLER DUP5 DUP5 PUSH1 0x40 MLOAD PUSH2 0xD09 SWAP4 SWAP3 SWAP2 SWAP1 PUSH2 0x13C2 JUMP JUMPDEST PUSH1 0x40 MLOAD DUP1 SWAP2 SUB SWAP1 LOG1 PUSH2 0xD19 PUSH2 0x809 JUMP JUMPDEST ISZERO DUP1 ISZERO SWAP1 PUSH2 0xD26 JUMPI POP DUP2 ISZERO ISZERO JUMPDEST ISZERO PUSH2 0xD3F JUMPI PUSH1 0x3 DUP1 SLOAD PUSH1 0xFF PUSH1 0xA0 SHL NOT AND PUSH1 0x1 PUSH1 0xA0 SHL OR SWAP1 SSTORE JUMPDEST POP POP POP JUMP JUMPDEST PUSH1 0x0 SLOAD PUSH1 0x1 PUSH1 0x1 PUSH1 0xA0 SHL SUB AND CALLER EQ PUSH2 0xD6E JUMPI PUSH1 0x40 MLOAD PUSH3 0x461BCD PUSH1 0xE5 SHL DUP2 MSTORE PUSH1 0x4 ADD PUSH2 0x3C4 SWAP1 PUSH2 0x14CD JUMP JUMPDEST PUSH1 0x3 SLOAD PUSH1 0x1 PUSH1 0xA0 SHL SWAP1 DIV PUSH1 0xFF AND ISZERO PUSH2 0xD98 JUMPI PUSH1 0x40 MLOAD PUSH3 0x461BCD PUSH1 0xE5 SHL DUP2 MSTORE PUSH1 0x4 ADD PUSH2 0x3C4 SWAP1 PUSH2 0x1262 JUMP JUMPDEST PUSH1 0x1 PUSH1 0x1 PUSH1 0xA0 SHL SUB AND PUSH1 0x0 SWAP1 DUP2 MSTORE PUSH1 0x4 PUSH1 0x20 MSTORE PUSH1 0x40 SWAP1 KECCAK256 DUP1 SLOAD PUSH1 0xFF NOT AND PUSH1 0x1 OR SWAP1 SSTORE JUMP JUMPDEST DUP2 CALLER DUP2 PUSH2 0xDC8 DUP3 PUSH2 0x10D5 JUMP JUMPDEST LT ISZERO DUP1 ISZERO PUSH2 0xDD8 JUMPI POP PUSH1 0x2 SLOAD DUP3 GT ISZERO JUMPDEST PUSH2 0xDF4 JUMPI PUSH1 0x40 MLOAD PUSH3 0x461BCD PUSH1 0xE5 SHL DUP2 MSTORE PUSH1 0x4 ADD PUSH2 0x3C4 SWAP1 PUSH2 0x1210 JUMP JUMPDEST PUSH1 0x3 SLOAD PUSH1 0x1 PUSH1 0xA0 SHL SWAP1 DIV PUSH1 0xFF AND ISZERO PUSH2 0xE1E JUMPI PUSH1 0x40 MLOAD PUSH3 0x461BCD PUSH1 0xE5 SHL DUP2 MSTORE PUSH1 0x4 ADD PUSH2 0x3C4 SWAP1 PUSH2 0x1262 JUMP JUMPDEST PUSH1 0x1 PUSH1 0x1 PUSH1 0xA0 SHL SUB DUP4 AND CALLER EQ PUSH2 0xE90 JUMPI PUSH1 0x40 MLOAD PUSH3 0x461BCD PUSH1 0xE5 SHL DUP2 MSTORE PUSH1 0x20 PUSH1 0x4 DUP3 ADD MSTORE PUSH1 0x31 PUSH1 0x24 DUP3 ADD MSTORE PUSH32 0x596F752063616E207769746864726177206F6E6C7920796F75722066756E6473 PUSH1 0x44 DUP3 ADD MSTORE PUSH17 0x20696E20796F7572206164647265737321 PUSH1 0x78 SHL PUSH1 0x64 DUP3 ADD MSTORE PUSH1 0x84 ADD PUSH2 0x3C4 JUMP JUMPDEST PUSH2 0xE99 CALLER PUSH2 0x7EB JUMP JUMPDEST ISZERO ISZERO PUSH1 0x1 EQ PUSH2 0xEBA JUMPI PUSH1 0x40 MLOAD PUSH3 0x461BCD PUSH1 0xE5 SHL DUP2 MSTORE PUSH1 0x4 ADD PUSH2 0x3C4 SWAP1 PUSH2 0x1302 JUMP JUMPDEST PUSH1 0x2 SLOAD DUP5 GT ISZERO PUSH2 0xF01 JUMPI PUSH1 0x40 MLOAD PUSH3 0x461BCD PUSH1 0xE5 SHL DUP2 MSTORE PUSH1 0x20 PUSH1 0x4 DUP3 ADD MSTORE PUSH1 0x12 PUSH1 0x24 DUP3 ADD MSTORE PUSH18 0x496E73756666696369656E742066756E6473 PUSH1 0x70 SHL PUSH1 0x44 DUP3 ADD MSTORE PUSH1 0x64 ADD PUSH2 0x3C4 JUMP JUMPDEST PUSH1 0x40 MLOAD PUSH1 0x1 PUSH1 0x1 PUSH1 0xA0 SHL SUB DUP5 AND SWAP1 DUP6 ISZERO PUSH2 0x8FC MUL SWAP1 DUP7 SWAP1 PUSH1 0x0 DUP2 DUP2 DUP2 DUP6 DUP9 DUP9 CALL SWAP4 POP POP POP POP ISZERO DUP1 ISZERO PUSH2 0xF37 JUMPI RETURNDATASIZE PUSH1 0x0 DUP1 RETURNDATACOPY RETURNDATASIZE PUSH1 0x0 REVERT JUMPDEST POP DUP4 PUSH1 0x2 PUSH1 0x0 DUP3 DUP3 SLOAD PUSH2 0xF4A SWAP2 SWAP1 PUSH2 0x13AB JUMP JUMPDEST SWAP1 SWAP2 SSTORE POP POP PUSH1 0x1 PUSH1 0x1 PUSH1 0xA0 SHL SUB DUP4 AND PUSH1 0x0 SWAP1 DUP2 MSTORE PUSH1 0x5 PUSH1 0x20 MSTORE PUSH1 0x40 DUP2 KECCAK256 DUP1 SLOAD DUP7 SWAP3 SWAP1 PUSH2 0xF77 SWAP1 DUP5 SWAP1 PUSH2 0x13AB JUMP JUMPDEST SWAP1 SWAP2 SSTORE POP POP PUSH1 0x40 MLOAD PUSH32 0xFDA3A3E0E1479B43CB1C701F7576187F4C4AD80768D627387E00184302F7D88E SWAP1 PUSH2 0xFB0 SWAP1 CALLER SWAP1 DUP7 SWAP1 DUP9 SWAP1 PUSH2 0x13C2 JUMP JUMPDEST PUSH1 0x40 MLOAD DUP1 SWAP2 SUB SWAP1 LOG1 POP POP POP POP JUMP JUMPDEST PUSH1 0x0 SLOAD PUSH1 0x1 PUSH1 0x1 PUSH1 0xA0 SHL SUB AND CALLER EQ PUSH2 0xFE8 JUMPI PUSH1 0x40 MLOAD PUSH3 0x461BCD PUSH1 0xE5 SHL DUP2 MSTORE PUSH1 0x4 ADD PUSH2 0x3C4 SWAP1 PUSH2 0x14CD JUMP JUMPDEST PUSH1 0x3 SLOAD PUSH1 0x1 PUSH1 0xA0 SHL SWAP1 DIV PUSH1 0xFF AND ISZERO PUSH2 0x1012 JUMPI PUSH1 0x40 MLOAD PUSH3 0x461BCD PUSH1 0xE5 SHL DUP2 MSTORE PUSH1 0x4 ADD PUSH2 0x3C4 SWAP1 PUSH2 0x1262 JUMP JUMPDEST PUSH2 0x101B DUP2 PUSH2 0x7EB JUMP JUMPDEST ISZERO ISZERO PUSH1 0x1 EQ PUSH2 0x106C JUMPI PUSH1 0x40 MLOAD PUSH3 0x461BCD PUSH1 0xE5 SHL DUP2 MSTORE PUSH1 0x20 PUSH1 0x4 DUP3 ADD MSTORE PUSH1 0x17 PUSH1 0x24 DUP3 ADD MSTORE PUSH32 0x6E6F6E2D77686974656C69737465642061646472657373000000000000000000 PUSH1 0x44 DUP3 ADD MSTORE PUSH1 0x64 ADD PUSH2 0x3C4 JUMP JUMPDEST PUSH1 0x1 SLOAD PUSH1 0x40 DUP1 MLOAD PUSH1 0x1 PUSH1 0x1 PUSH1 0xA0 SHL SUB SWAP3 DUP4 AND DUP2 MSTORE SWAP2 DUP4 AND PUSH1 0x20 DUP4 ADD MSTORE PUSH32 0x2D027CD3F9225738DBAF7C0C783C5D94D77975C87E16E3FA4BF81BCAF1AE91BB SWAP2 ADD PUSH1 0x40 MLOAD DUP1 SWAP2 SUB SWAP1 LOG1 PUSH1 0x1 DUP1 SLOAD PUSH1 0x1 PUSH1 0x1 PUSH1 0xA0 SHL SUB NOT AND PUSH1 0x1 PUSH1 0x1 PUSH1 0xA0 SHL SUB SWAP3 SWAP1 SWAP3 AND SWAP2 SWAP1 SWAP2 OR SWAP1 SSTORE JUMP JUMPDEST PUSH1 0x3 SLOAD PUSH1 0x0 SWAP1 PUSH1 0x1 PUSH1 0xA0 SHL SWAP1 DIV PUSH1 0xFF AND ISZERO PUSH2 0x1102 JUMPI PUSH1 0x40 MLOAD PUSH3 0x461BCD PUSH1 0xE5 SHL DUP2 MSTORE PUSH1 0x4 ADD PUSH2 0x3C4 SWAP1 PUSH2 0x1262 JUMP JUMPDEST PUSH1 0x1 PUSH1 0x1 PUSH1 0xA0 SHL SUB DUP3 AND CALLER EQ PUSH2 0x112A JUMPI PUSH1 0x40 MLOAD PUSH3 0x461BCD PUSH1 0xE5 SHL DUP2 MSTORE PUSH1 0x4 ADD PUSH2 0x3C4 SWAP1 PUSH2 0x1470 JUMP JUMPDEST POP PUSH1 0x1 PUSH1 0x1 PUSH1 0xA0 SHL SUB AND PUSH1 0x0 SWAP1 DUP2 MSTORE PUSH1 0x5 PUSH1 0x20 MSTORE PUSH1 0x40 SWAP1 KECCAK256 SLOAD SWAP1 JUMP JUMPDEST PUSH1 0x0 PUSH1 0x20 DUP3 DUP5 SUB SLT ISZERO PUSH2 0x1158 JUMPI PUSH1 0x0 DUP1 REVERT JUMPDEST POP CALLDATALOAD SWAP2 SWAP1 POP JUMP JUMPDEST PUSH1 0x1 PUSH1 0x1 PUSH1 0xA0 SHL SUB DUP2 AND DUP2 EQ PUSH2 0x1174 JUMPI PUSH1 0x0 DUP1 REVERT JUMPDEST POP JUMP JUMPDEST PUSH1 0x0 PUSH1 0x20 DUP3 DUP5 SUB SLT ISZERO PUSH2 0x1189 JUMPI PUSH1 0x0 DUP1 REVERT JUMPDEST DUP2 CALLDATALOAD PUSH2 0x1194 DUP2 PUSH2 0x115F JUMP JUMPDEST SWAP4 SWAP3 POP POP POP JUMP JUMPDEST PUSH1 0x0 DUP1 PUSH1 0x40 DUP4 DUP6 SUB SLT ISZERO PUSH2 0x11AE JUMPI PUSH1 0x0 DUP1 REVERT JUMPDEST DUP3 CALLDATALOAD SWAP2 POP PUSH1 0x20 DUP4 ADD CALLDATALOAD PUSH2 0x11C0 DUP2 PUSH2 0x115F JUMP JUMPDEST DUP1 SWAP2 POP POP SWAP3 POP SWAP3 SWAP1 POP JUMP JUMPDEST PUSH1 0x0 DUP1 PUSH1 0x40 DUP4 DUP6 SUB SLT ISZERO PUSH2 0x11DE JUMPI PUSH1 0x0 DUP1 REVERT JUMPDEST DUP3 CALLDATALOAD PUSH2 0x11E9 DUP2 PUSH2 0x115F JUMP JUMPDEST SWAP5 PUSH1 0x20 SWAP4 SWAP1 SWAP4 ADD CALLDATALOAD SWAP4 POP POP POP JUMP JUMPDEST PUSH1 0x0 PUSH1 0x20 DUP3 DUP5 SUB SLT ISZERO PUSH2 0x1209 JUMPI PUSH1 0x0 DUP1 REVERT JUMPDEST POP MLOAD SWAP2 SWAP1 POP JUMP JUMPDEST PUSH1 0x20 DUP1 DUP3 MSTORE PUSH1 0x32 SWAP1 DUP3 ADD MSTORE PUSH32 0x596F7520686176656E277420656E6F7567682066756E6473206465706F736974 PUSH1 0x40 DUP3 ADD MSTORE PUSH18 0xCAC840D2DC40E8D0CA409ADEDCCAF284DEF PUSH1 0x73 SHL PUSH1 0x60 DUP3 ADD MSTORE PUSH1 0x80 ADD SWAP1 JUMP JUMPDEST PUSH1 0x20 DUP1 DUP3 MSTORE PUSH1 0x74 SWAP1 DUP3 ADD MSTORE PUSH32 0x4C6564676572206F66206465706F7369747320686173206265656E2062726F6B PUSH1 0x40 DUP3 ADD MSTORE PUSH32 0x656E206279207769746864726177616C206F6620746F74616C2062616C616E63 PUSH1 0x60 DUP3 ADD MSTORE PUSH32 0x652066726F6D206F776E6572206F72206869732064656C65676174653B206675 PUSH1 0x80 DUP3 ADD MSTORE PUSH20 0x6E6374696F6E206E6F7420696E766F6B61626C65 PUSH1 0x60 SHL PUSH1 0xA0 DUP3 ADD MSTORE PUSH1 0xC0 ADD SWAP1 JUMP JUMPDEST PUSH1 0x20 DUP1 DUP3 MSTORE PUSH1 0x4B SWAP1 DUP3 ADD MSTORE PUSH32 0x7472616E73666572206E6F7420616C6C6F7765642C2061646472657373206E6F PUSH1 0x40 DUP3 ADD MSTORE PUSH32 0x742062656C6F6E67696E6720746F2074686520706C6174666F726D2F6E6F6E2D PUSH1 0x60 DUP3 ADD MSTORE PUSH11 0x1DDA1A5D195B1A5CDD1959 PUSH1 0xAA SHL PUSH1 0x80 DUP3 ADD MSTORE PUSH1 0xA0 ADD SWAP1 JUMP JUMPDEST PUSH1 0x0 PUSH1 0x20 DUP3 DUP5 SUB SLT ISZERO PUSH2 0x1385 JUMPI PUSH1 0x0 DUP1 REVERT JUMPDEST DUP2 MLOAD DUP1 ISZERO ISZERO DUP2 EQ PUSH2 0x1194 JUMPI PUSH1 0x0 DUP1 REVERT JUMPDEST PUSH4 0x4E487B71 PUSH1 0xE0 SHL PUSH1 0x0 MSTORE PUSH1 0x11 PUSH1 0x4 MSTORE PUSH1 0x24 PUSH1 0x0 REVERT JUMPDEST PUSH1 0x0 DUP3 DUP3 LT ISZERO PUSH2 0x13BD JUMPI PUSH2 0x13BD PUSH2 0x1395 JUMP JUMPDEST POP SUB SWAP1 JUMP JUMPDEST PUSH1 0x1 PUSH1 0x1 PUSH1 0xA0 SHL SUB SWAP4 DUP5 AND DUP2 MSTORE SWAP2 SWAP1 SWAP3 AND PUSH1 0x20 DUP3 ADD MSTORE PUSH1 0x40 DUP2 ADD SWAP2 SWAP1 SWAP2 MSTORE PUSH1 0x60 ADD SWAP1 JUMP JUMPDEST PUSH1 0x20 DUP1 DUP3 MSTORE PUSH1 0x4C SWAP1 DUP3 ADD MSTORE PUSH32 0x6F7065726174696F6E206E6F7420616C6C6F7765642C2061646472657373206E PUSH1 0x40 DUP3 ADD MSTORE PUSH32 0x6F742062656C6F6E67696E6720746F2074686520706C6174666F726D2F6E6F6E PUSH1 0x60 DUP3 ADD MSTORE PUSH12 0xB5DDA1A5D195B1A5CDD1959 PUSH1 0xA2 SHL PUSH1 0x80 DUP3 ADD MSTORE PUSH1 0xA0 ADD SWAP1 JUMP JUMPDEST PUSH1 0x0 DUP3 NOT DUP3 GT ISZERO PUSH2 0x146B JUMPI PUSH2 0x146B PUSH2 0x1395 JUMP JUMPDEST POP ADD SWAP1 JUMP JUMPDEST PUSH1 0x20 DUP1 DUP3 MSTORE PUSH1 0x3B SWAP1 DUP3 ADD MSTORE PUSH32 0x796F752063616E6E6F7420636865636B207468652062616C616E636573206F66 PUSH1 0x40 DUP3 ADD MSTORE PUSH32 0x206F7468657220616464726573736573207468616E20796F7572730000000000 PUSH1 0x60 DUP3 ADD MSTORE PUSH1 0x80 ADD SWAP1 JUMP JUMPDEST PUSH1 0x20 DUP1 DUP3 MSTORE PUSH1 0x2B SWAP1 DUP3 ADD MSTORE PUSH32 0x4F6E6C79206F776E65722063616E207365742077686F2063616E205573652074 PUSH1 0x40 DUP3 ADD MSTORE PUSH11 0xD0CA409ADEDCCAF284DEF PUSH1 0xAB SHL PUSH1 0x60 DUP3 ADD MSTORE PUSH1 0x80 ADD SWAP1 JUMP JUMPDEST PUSH1 0x20 DUP1 DUP3 MSTORE PUSH1 0x29 SWAP1 DUP3 ADD MSTORE PUSH32 0x4F6E6C79206F776E6572206F722064656C65676174652063616E207769746864 PUSH1 0x40 DUP3 ADD MSTORE PUSH9 0x7261772066756E6473 PUSH1 0xB8 SHL PUSH1 0x60 DUP3 ADD MSTORE PUSH1 0x80 ADD SWAP1 JUMP INVALID LOG2 PUSH5 0x6970667358 0x22 SLT KECCAK256 PUSH22 0x4D9C8FFBD831D5632F6BFFE5AACFFD2E132B52A13A0F 0xAE 0xEC 0xDF CHAINID DUP14 0x29 0xD4 0xBF 0x2C PUSH5 0x736F6C6343 STOP ADDMOD 0xF STOP CALLER ",
  "sha1": "f77c64c09afdf7e4c6c76501ad0ff5a9a49cb328",
  "source": "//SPDX-License-Identifier: MIT\npragma solidity >=0.7.0 <0.9.0;\n\nimport \"@openzeppelin/contracts/token/ERC20/utils/SafeERC20.sol\"; \nimport \"contracts/Patoken.sol\";\n\ncontract MoneyBoxErc20  {\n    address owner;\n    address delegateToUse;\n    uint256 ethBalance;  \n    IERC20 token;\n    bool ledgerBalanceBroken;\n    mapping(address => bool) whitelistedAddresses;\n    mapping(address => uint256) ethBalanceForUser;\n    mapping(address => uint256) erc20BalanceForUser;\n    \n    event TransferReceived(address _from, uint256 _amount);\n    event ChangesDelegateTospend(address _initialAccount, address _finalAccount);   \n    event TransferSent(address _from, address _destAddr, uint256 _amount);\n    event TransferSentErc20(address _from, address _destAddr, uint256 _amount);\n    event DepositERC20(address _from, uint256 _amount);\n\n    constructor(IERC20 _scAddress) payable {\n        owner = msg.sender;\n        delegateToUse=msg.sender;\n        ethBalanceForUser[msg.sender]=msg.value;\n        ethBalance=msg.value;\n        token=_scAddress;\n        whitelistedAddresses[msg.sender] = true;\n        ledgerBalanceBroken=false;\n    }\n    \n    modifier onlyOwner() {\n      require(msg.sender == owner, \"Only owner can set who can Use the MoneyBox\");\n      _;\n    }\n\n    modifier checkEnoughEthBalance(uint256 _amountTransf,address _checkAddr) {\n      require(getEthBalanceForUser(_checkAddr)>=_amountTransf && _amountTransf <= ethBalance,\"You haven't enough funds deposited in the MoneyBox\");\n      _;\n    }\n \n\n    modifier checkWhiteList(address _checkAddr) {\n        require(verifyUser(_checkAddr)==true,\"operation not allowed, address not belonging to the platform/non-whitelisted\");\n      _;\n    }\n\n    modifier checkEnoughERC20Balance(address _checkAddr,uint256 _amountTransf) {\n      require(getERC20balanceForUser(_checkAddr)>=_amountTransf && _amountTransf <=token.balanceOf(address(this)),\"You haven't enough funds deposited in the MoneyBox\");\n      _;\n    }\n\n    modifier inconsistencyControll (){\n        require(ledgerBalanceBroken==false,\"Ledger of deposits has been broken by withdrawal of total balance from owner or his delegate; function not invokable\");\n        _;\n    }\n\n\n    function addUserInPlatform(address _addressToWhitelist) public onlyOwner inconsistencyControll{\n      whitelistedAddresses[_addressToWhitelist] = true;\n    }\n    \n\n    function verifyUser(address _whitelistedAddress) public view returns(bool) {\n      bool userIsWhitelisted = whitelistedAddresses[_whitelistedAddress];\n      return userIsWhitelisted;\n    }\n\n    function setDelegateToFullWithdraw(address _delegateToUse) public onlyOwner inconsistencyControll  {\n        require (verifyUser(_delegateToUse)==true,\"non-whitelisted address\");\n        emit ChangesDelegateTospend(delegateToUse, _delegateToUse); \n        delegateToUse=_delegateToUse;\n    }\n    \n    function depositEth(uint256 _amount) public payable checkWhiteList(msg.sender) inconsistencyControll {\n        require (_amount == msg.value,\"Attention, set the same value in the 'amount' and 'value' transaction fields\");\n        ethBalance += msg.value;\n        ethBalanceForUser[msg.sender]+=msg.value;\n        emit TransferReceived(msg.sender, msg.value);\n    }\n    \n\n    function depositErc20(uint256 _amount) public checkWhiteList(msg.sender) inconsistencyControll {\n        token.transferFrom(msg.sender,address(this),_amount);\n        erc20BalanceForUser[msg.sender]+=_amount;\n        emit DepositERC20(msg.sender, _amount);\n    }\n    \n    function getEthTotalBalance() view public returns (uint256) {\n        return address(this).balance;\n    }\n\n    function getEthBalanceForUser(address _searchAddr) view public inconsistencyControll returns (uint256) {       \n        require(_searchAddr==msg.sender,\"you cannot check the balances of other addresses than yours\");\n        return ethBalanceForUser[_searchAddr];\n    }\n\n    function getOwner() view public returns (address) {\n        return owner;\n    }\n\n    function viewDelegateToUse() view public returns (address) {\n        return delegateToUse;\n    }\n    \n    function checkLedgerInconsistency() view public returns (bool) {\n        return ledgerBalanceBroken;\n    }\n    \n    function reinitializeLedger() public onlyOwner(){\n        require(ledgerBalanceBroken==true,\"invokable function only if Ledger of deposits is broken by withdrawal from total balance\");\n        delegateToUse=owner;\n        token.transfer(owner, getTotalERC20balance());\n        payable(owner).transfer(ethBalance);\n        ledgerBalanceBroken=false;\n    }\n\n    function transferERC20TotalBalance(address _to, uint256 _amount) public {\n        require (verifyUser(_to)==true,\"transfer not allowed, address not belonging to the platform/non-whitelisted\");\n        require(msg.sender == owner || msg.sender == delegateToUse, \"Only owner or delegate can withdraw funds\"); \n        uint256 erc20balance = getTotalERC20balance(); /*token.balanceOf(address(this));*/\n        require(_amount <= erc20balance, \"balance is low\");\n        token.transfer(_to, _amount);\n        emit TransferSentErc20(msg.sender, _to, _amount);\n        if (getTotalERC20balance()!= 0 && _amount!=0){\n            ledgerBalanceBroken=true;\n        }\n    }  \n    \n    function withdrawEthTotalBalance(uint256 _amount, address payable _destAddr) public  {\n        require (verifyUser(_destAddr)==true,\"transfer not allowed, address not belonging to the platform/non-whitelisted\");\n        require(msg.sender == owner || msg.sender == delegateToUse, \"Only owner or delegate can withdraw funds\"); \n        require(_amount <= ethBalance, \"Insufficient funds\");  \n        _destAddr.transfer(_amount);\n        ethBalance -= _amount;\n        emit TransferSent(msg.sender, _destAddr, _amount);\n        if (ethBalance!= 0 && _amount!=0){\n            ledgerBalanceBroken=true;\n        }\n    }\n\n    function withdrawEthForUser(uint256 _amount, address payable _destAddr) public checkEnoughEthBalance(_amount,msg.sender) inconsistencyControll {\n        require(_destAddr==msg.sender,\"You can withdraw only your funds in your address!\");\n        require (verifyUser(msg.sender)==true,\"transfer not allowed, address not belonging to the platform/non-whitelisted\");\n        require(_amount <= ethBalance, \"Insufficient funds\"); \n        _destAddr.transfer(_amount);\n        ethBalance -= _amount;\n        ethBalanceForUser[_destAddr]-=_amount;\n        emit TransferSent(msg.sender, _destAddr, _amount);\n    }\n  \n    function withdrawERC20ForUser(uint256 _amount) public checkEnoughERC20Balance(msg.sender,_amount) inconsistencyControll{\n        require (verifyUser(msg.sender)==true,\"transfer not allowed, address not belonging to the platform/non-whitelisted\"); \n        token.transfer(msg.sender, _amount);\n        erc20BalanceForUser[msg.sender]-=_amount;\n        emit TransferSentErc20(msg.sender, msg.sender, _amount);\n    }  \n\n\n    function getTotalERC20balance() view public returns (uint256) {\n        return token.balanceOf(address(this));\n    } \n    \n    function getERC20balanceForUser(address _searchAddr) view public inconsistencyControll returns (uint256) {\n        require(_searchAddr==msg.sender,\"you cannot check the balances of other addresses than yours\");\n        return erc20BalanceForUser[_searchAddr];\n    } \n} ",
  "sourcePath": "contracts/MoneyBoxErc20.sol",
  "type": "contract"
}